:100000000C9462000C948A000C948A000C948A0070
:100010000C948A000C948A000C948A000C948A0038
:100020000C948A000C948A000C948A000C948A0028
:100030000C948A000C948A000C948A000C948A0018
:100040000C94B3030C948A000C9423040C94FD03C9
:100050000C948A000C948A000C948A000C948A00F8
:100060000C948A000C948A000000000023002600F3
:10007000290000000000240027002A0000000000E2
:10008000250028002B0004040404040404040202D4
:100090000202020203030303030301020408102007
:1000A0004080010204081020010204081020000012
:1000B0000008000201000003040700000000000027
:1000C0000000550411241FBECFEFD8E0DEBFCDBF26
:1000D00011E0A0E0B1E0EAE0F2E102C005900D928B
:1000E000A635B107D9F722E0A6E5B1E001C01D921F
:1000F000AA30B207E1F710E0C2E6D0E004C02197D1
:10010000FE010E94FD08C136D107C9F70E94840490
:100110000C9403090C94000090E0FC01E255FF4FA1
:100120002491FC01E656FF4F3491FC01EA57FF4F42
:10013000E491EE23C9F0222339F0233001F1A8F431
:10014000213019F1223029F1F0E0EE0FFF1FE458C1
:10015000FF4FA591B4918FB7F894EC91611126C02F
:1001600030953E233C938FBF08952730A9F0283067
:10017000C9F0243049F7809180008F7D03C08091C1
:1001800080008F7780938000DFCF84B58F7784BD28
:10019000DBCF84B58F7DFBCF8091B0008F778093CC
:1001A000B000D2CF8091B0008F7DF9CF3E2BDACF57
:1001B000CF93DF9390E0FC01E656FF4F24918A57DE
:1001C0009F4FFC0184918823D1F090E0880F991F04
:1001D000FC01EE58FF4FA591B491FC01E458FF4F8C
:1001E000C591D49161110EC09FB7F8948C91E22F04
:1001F000E0958E238C932881E223E8839FBFDF91D3
:10020000CF9108958FB7F894EC91E22BEC938FBFC8
:10021000F6CF3FB7F89480915B0190915C01A0917B
:100220005D01B0915E0126B5A89B05C02F3F19F076
:100230000196A11DB11D3FBFBA2FA92F982F882766
:10024000BC01CD01620F711D811D911D42E0660F41
:10025000771F881F991F4A95D1F708958F929F9213
:10026000AF92BF92CF92DF92EF92FF924B015C016F
:100270000E9409016B017C010E9409016C197D0932
:100280008E099F09683E734081059105A8F321E01E
:10029000821A9108A108B10888EEC80E83E0D81E22
:1002A000E11CF11C81149104A104B10429F7FF9011
:1002B000EF90DF90CF90BF90AF909F908F90089578
:1002C000AF92BF92CF92DF92EF92FF920F931F9364
:1002D000CF93DF936C017B018B01040F151FEB01A2
:1002E0005E01AE18BF08C017D10759F06991D60159
:1002F000ED91FC910190F081E02DC6010995892BCB
:1003000079F7C501DF91CF911F910F91FF90EF9089
:10031000DF90CF90BF90AF900895FC01538D448D36
:10032000252F30E0842F90E0821B930B541710F0A0
:10033000CF96089501970895FC01918D828D9817AD
:1003400061F0A28DAE0FBF2FB11D5D968C91928D85
:100350009F5F9F73928F90E008958FEF9FEF0895B6
:10036000FC01918D828D981731F0828DE80FF11D7F
:10037000858D90E008958FEF9FEF0895FC01918D9A
:10038000228D892F90E0805C9F4F821B91098F7393
:10039000992708958FE591E00E94BE0121E0892B05
:1003A00009F420E0822F089580E090E0892B29F065
:1003B0000E94CA0181110C9400000895FC01A48DD3
:1003C000A80FB92FB11DA35ABF4F2C91848D90E077
:1003D00001968F739927848FA689B7892C93A0895A
:1003E000B1898C91837080648C93938D848D9813E4
:1003F00006C00288F389E02D80818F7D8083089577
:10040000EF92FF920F931F93CF93DF93EC0181E064
:10041000888F9B8D8C8D98131AC0E889F98980810B
:1004200085FF15C09FB7F894EE89FF896083E8893E
:10043000F98980818370806480839FBF81E090E030
:10044000DF91CF911F910F91FF90EF900895F62EBD
:100450000B8D10E00F5F1F4F0F731127E02E8C8D57
:100460008E110CC00FB607FCFACFE889F98980819C
:1004700085FFF5CFCE010E94DE01F1CFEB8DEC0FB1
:10048000FD2FF11DE35AFF4FF0829FB7F8940B8FB9
:10049000EA89FB8980818062CFCFCF93DF93EC0123
:1004A000888D8823B9F0AA89BB89E889F9898C915C
:1004B00085FD03C0808186FD0DC00FB607FCF7CF18
:1004C0008C9185FFF2CF808185FFEDCFCE010E9418
:1004D000DE01E9CFDF91CF910895EF92FF920F9364
:1004E0001F93CF93DF9380509F4FFC01008186E0E4
:1004F000E82E81E0F82ED0E0C0E010E0F701808126
:10050000F2E0EF0EF11CB8010C2E02C07595679554
:100510000A94E2F761700E948C002196C730D105E1
:1005200069F7DF91CF911F910F91FF90EF900895A0
:10053000FC0101900020E9F73197AF01481B590BEE
:10054000BC018FE591E00C9460018F929F92AF9275
:10055000BF920F931F93CF93DF93CDB7DEB7A197D1
:100560000FB6F894DEBF0FBECDBF19A2423008F41B
:100570004AE08E010F5D1F4F842E912CB12CA12CCF
:10058000A50194010E94DB08E62FB901CA01EA30F7
:10059000F4F4E05DD801EE938D01232B242B252B61
:1005A00079F790E080E0109719F0CD010E94980251
:1005B000A1960FB6F894DEBF0FBECDBFDF91CF91ED
:1005C0001F910F91BF90AF909F908F900895E95C1D
:1005D000E1CF4F925F926F927F928F929F92AF92F4
:1005E000BF92CF92DF92EF92FF926B017C01AC0140
:1005F0009B010E94D6088823C1F086E291E00E9408
:1006000098027C0182E391E00E9498028E0D9F1D6A
:10061000FF90EF90DF90CF90BF90AF909F908F9022
:100620007F906F905F904F90089546015701E89436
:10063000B7F82FEF3FEF4FE75FE7C501B4010E9426
:10064000D60881110DC02FEF3FEF4FE75FE7C501DF
:10065000B4010E947E0718161CF48AE291E0CFCF05
:100660002FEF3FEF4FE75FE4C701B6010E94640838
:1006700018161CF48EE291E0C2CF2FEF3FEF4FE748
:100680005FECC701B6010E947E0787FDF3CF20E033
:1006900030E0A901C701B6010E947E07B12CA12C50
:1006A00087FF0AC06DE28FE591E00E9400025C01C5
:1006B000F7FAF094F7F8F0942AE037ED43EA5BE3B9
:1006C000C701B6010E9412072B013C010E9483075B
:1006D0006B017C010E94B2079B01AC01C301B20116
:1006E0000E9411072B013C014AE0C701B6010E949C
:1006F000A5027C01EA0CFB1C6EE28FE591E00E94F2
:100700000002E80EF91E20E030E040E251E4C301AF
:10071000B2010E9469082B013C010E9483074B0132
:10072000B12CA12C4AE0C501B4010E94A502E80E3B
:10073000F91EC501B4010E94B2079B01AC01C301BF
:10074000B2010E94110720E030E040E251E40E9433
:1007500069080E94830790E080E04AE00E94A502B9
:10076000E80EF91E4FCF1F920F920FB60F92112471
:100770002F933F938F939F93AF93BF938091570194
:1007800090915801A0915901B0915A0130915601B0
:1007900023E0230F2D3758F50196A11DB11D20939D
:1007A00056018093570190935801A0935901B0933B
:1007B0005A0180915B0190915C01A0915D01B09123
:1007C0005E010196A11DB11D80935B0190935C01B8
:1007D000A0935D01B0935E01BF91AF919F918F9106
:1007E0003F912F910F900FBE0F901F90189526E804
:1007F000230F0296A11DB11DD2CF1F920F920FB6EB
:100800000F9211242F933F934F935F936F937F9396
:100810008F939F93AF93BF93EF93FF938FE591E0F7
:100820000E94DE01FF91EF91BF91AF919F918F9157
:100830007F916F915F914F913F912F910F900FBEDC
:100840000F901F9018951F920F920FB60F921124C0
:100850002F938F939F93EF93FF93E0916F01F0910C
:1008600070018081E0917501F091760182FD1BC0DD
:100870009081809178018F5F8F7320917901821729
:1008800041F0E0917801F0E0E15AFE4F958F8093BE
:100890007801FF91EF919F918F912F910F900FBE53
:1008A0000F901F9018958081F4CFEFE5F1E013824F
:1008B000128288EE93E0A0E0B0E084839583A68363
:1008C000B78388E191E09183808385EC90E0958700
:1008D000848784EC90E09787868780EC90E0918B0A
:1008E000808B81EC90E0938B828B82EC90E0958BF7
:1008F000848B86EC90E0978B868B118E128E138EF4
:10090000148E109209020895CF93DF93CDB7DEB70E
:1009100028970FB6F894DEBF0FBECDBF789484B58C
:10092000826084BD84B5816084BD85B5826085BDEB
:1009300085B5816085BD80916E00816080936E0079
:10094000109281008091810082608093810080916B
:10095000810081608093810080918000816080931C
:1009600080008091B10084608093B1008091B000DC
:1009700081608093B00080917A00846080937A00D7
:1009800080917A00826080937A0080917A00816001
:1009900080937A0080917A00806880937A00109228
:1009A000C100E0916F01F091700182E08083E091DD
:1009B0006B01F0916C011082E0916D01F0916E017C
:1009C0008FEC808310927701E0917301F0917401B4
:1009D00086E08083E0917101F091720180818061F5
:1009E0008083E0917101F091720180818860808341
:1009F000E0917101F0917201808180688083E091C3
:100A00007101F091720180818F7D808306E011E099
:100A100044E1E42E41E0F42E1A830983E981FA814E
:100A200080813296FA83E98361E00E94D8002981AF
:100A30003A81E216F30691F7F80180810E5F1F4FAD
:100A400060E00E948C0029813A8102171307A1F708
:100A500034EA232E30E0332E00E910E080910902C1
:100A6000882309F0F894F101D490F8018491E82FDB
:100A7000F0E0EE0FFF1FE859FF4FE590F49061E0C2
:100A80008AE00E94D80060E08AE00E948C0062E167
:100A900070E080E090E00E942E0161E08AE00E9418
:100AA0008C0060E08AE00E94D80080E293E0F701C9
:100AB00020812D2109F41BC10197C9F780910902FA
:100AC00081116CC1809104028F7780930402609140
:100AD0000602F62EE894F7F8F0920602682F70E00E
:100AE00090E080E00E94B2074B015C018092FC0123
:100AF0009092FD01A092FE01B092FF016F2D70E077
:100B000090E080E00E94B2076B017C01C09200027D
:100B1000D0920102E0920202F092030285E391E09A
:100B20000E949802C701B6010E94E90283E491E0A5
:100B30000E949802C501B4010E94E902A701960132
:100B4000C701B6010E94690869837A838B839C83FD
:100B5000A5019401C501B4010E9469086D837E83DB
:100B60008F8398872AE232E44EEC5FE3C701B60137
:100B70000E9469082CE13EE84CE051E40E94110714
:100B80002B013C0129EC3AEA45E150E4C501B401EE
:100B90000E9469089B01AC01C301B2010E941207C7
:100BA0002B013C0122E73FE945E15EEBC701B601BD
:100BB0000E946908A50194010E9469089B01AC018B
:100BC000C301B2010E9412072B013C0123EE37EA58
:100BD00049E45CEB69817A818B819C810E94690880
:100BE0009B01AC01C301B2010E9412072B013C0121
:100BF0002CE53DE846E85CEB6D817E818F81988530
:100C00000E9469089B01AC01C301B2010E94120756
:100C10002B013C0125EB32EF40E15BE369817A81F6
:100C20008B819C810E946908A50194010E9469083A
:100C30009B01AC01C301B2010E9412074B015C0190
:100C40002CEC3CE24EE35AE3C701B6010E9469086E
:100C50002D813E814F8158850E9469089B01AC011E
:100C6000C501B4010E9412076B017C012BE432E63E
:100C700040E756EB69817A818B819C810E946908EB
:100C80002D813E814F8158850E9469089B01AC01EE
:100C9000C701B6010E9412076B017C018EE491E04E
:100CA0000E949802C701B6010E94E90220E030E0EC
:100CB00040EA51E4C701B6010E947E0787FF70C079
:100CC00090E080E00E946D0268EE73E080E090E0CA
:100CD0000E942E0120E030E0232B09F4BFCE0E94B9
:100CE000CA01882309F4BACE0E940000B7CE80E979
:100CF00091E0F70120812D2119F40197D1F7DECE83
:100D000080E991E0F70120812D21A1F10197D1F730
:100D1000D5CE6B2F222309F4D1CEF701B081BD21AE
:100D200031F5662321F1283289F58417950708F4F7
:100D3000AC0180E9482E55245394612C712C441A3F
:100D4000550A6108710892E0759467945794479426
:100D50009A95D1F7369541F4EB2DF0E0E450FE4F33
:100D6000A087B394A0E030E8215080E991E001979A
:100D700081F6A4CEB12CA0E030E8512C412C80E9C2
:100D800091E040E951E060E028E2C7CFBA01641980
:100D9000750968177907F0F2A32BDCCF789492CE0F
:100DA00020E030E04EEB51E4C701B6010E947E071F
:100DB00087FF03C081E090E085CF20E030E04CED7C
:100DC00051E4C701B6010E947E0787FF03C082E09D
:100DD00090E078CF20E030E04AEF51E4C701B6015F
:100DE0000E947E0787FF03C083E090E06BCF20E086
:100DF00030E04CE052E4C701B6010E947E0787FF55
:100E000003C084E090E05ECF20E030E04CE052E4AC
:100E1000C701B6010E94640887FD56CF85E090E0C7
:100E200051CF5058BB27AA270E9429070C942A08A3
:100E30000E941C0838F00E94230820F039F49F3FDC
:100E400019F426F40C9419080EF4E095E7FB0C94C1
:100E50001308E92F0E943B0858F3BA17620773077B
:100E60008407950720F079F4A6F50C945D080EF43C
:100E7000E0950B2EBA2FA02D0B01B90190010C01AA
:100E8000CA01A0011124FF27591B99F0593F50F4C2
:100E9000503E68F11A16F040A22F232F342F44271A
:100EA000585FF3CF469537952795A795F040539512
:100EB000C9F77EF41F16BA0B620B730B840BBAF0E2
:100EC0009150A1F0FF0FBB1F661F771F881FC2F74D
:100ED0000EC0BA0F621F731F841F48F48795779561
:100EE0006795B795F7959E3F08F0B0CF9395880F1B
:100EF00008F09927EE0F9795879508950E94EF07C0
:100F000008F481E008950E94430888F09F5798F004
:100F1000B92F9927B751B0F0E1F0660F771F881FFE
:100F2000991F1AF0BA95C9F714C0B13091F00E9418
:100F30005D08B1E008950C945D08672F782F88272D
:100F4000B85F39F0B93FCCF3869577956795B3953F
:100F5000D9F73EF490958095709561957F4F8F4FAE
:100F60009F4F0895E89409C097FB3EF490958095B3
:100F7000709561957F4F8F4F9F4F9923A9F0F92F5F
:100F800096E9BB279395F695879577956795B795DD
:100F9000F111F8CFFAF4BB0F11F460FF1BC06F5FC3
:100FA0007F4F8F4F9F4F16C0882311F096E911C0D5
:100FB000772321F09EE8872F762F05C0662371F0F6
:100FC00096E8862F70E060E02AF09A95660F771F0A
:100FD000881FDAF7880F9695879597F90895990FE6
:100FE0000008550FAA0BE0E8FEEF16161706E807F3
:100FF000F907C0F012161306E407F50798F0621B14
:10100000730B840B950B39F40A2661F0232B242BE8
:10101000252B21F408950A2609F4A140A6958FEF07
:10102000811D811D089597F99F6780E870E060E059
:1010300008959FEF80EC089500240A941616170671
:1010400018060906089500240A94121613061406B9
:1010500005060895092E0394000C11F4882352F01C
:10106000BB0F40F4BF2B11F460FF04C06F5F7F4FD4
:101070008F4F9F4F089557FD9058440F551F59F0BB
:101080005F3F71F04795880F97FB991F61F09F3F75
:1010900079F087950895121613061406551FF2CF9E
:1010A0004695F1DF08C0161617061806991FF1CFEE
:1010B00086957105610508940895E894BB27662715
:1010C0007727CB0197F908950E94EF0708F48FEF77
:1010D00008950E947C080C942A080E941C0838F08D
:1010E0000E94230820F0952311F00C9413080C940F
:1010F000190811240C945E080E943B0870F3959F18
:10110000C1F3950F50E0551F629FF001729FBB27FE
:10111000F00DB11D639FAA27F00DB11DAA1F649F9A
:101120006627B00DA11D661F829F2227B00DA11D4D
:10113000621F739FB00DA11D621F839FA00D611DD3
:10114000221F749F3327A00D611D231F849F600DF4
:10115000211D822F762F6A2F11249F5750409AF01D
:10116000F1F088234AF0EE0FFF1FBB1F661F771FA9
:10117000881F91505040A9F79E3F510580F00C9474
:1011800013080C945E085F3FE4F3983ED4F3869511
:1011900077956795B795F795E7959F5FC1F7FE2B14
:1011A000880F911D9695879597F908950E94EF07EE
:1011B000880B990B0895A1E21A2EAA1BBB1BFD01F7
:1011C0000DC0AA1FBB1FEE1FFF1FA217B307E40726
:1011D000F50720F0A21BB30BE40BF50B661F771F7E
:1011E000881F991F1A9469F760957095809590955E
:1011F0009B01AC01BD01CF010895EE0FFF1F0590CB
:0A120000F491E02D0994F894FFCF5B
:10120A003F065B4F666D02000300040005000600FE
:10121A000700080000000000000260018D014D0275
:10122A00BE019C01B0016E616E00696E66006F7648
:10123A0066000D0A0054656D706572617475726599
:10124A003A200048756D69646974793A20004865E6
:06125A0061743A2000005F
:00000001FF
